:100000000C942D000C9467000C9467000C9467000E
:100010000C9467000C9467000C9467000C946700C4
:100020000C9467000C9467000C9467000C946700B4
:100030000C9467000C9467000C9467000C946700A4
:100040000C9467000C9467000C9467000C94670094
:100050000C94670000600061800011241FBECFE592
:10006000D8E0DEBFCDBFE4E5F0E040E017C0B591D9
:10007000A59135912591059107FD0CC0959185912C
:10008000EF01F92FE82F05900D92A217B307D9F7CA
:10009000FE0104C01D92A217B307E1F7E935F4078A
:0E00A00031F70E9457000C945500F894FFCFE2
:1000AE008FEF84BB0E946200779BFECF8FB180934F
:0600BE00600085BBF9CFD4
:0A00C400BE9A8DB183648DB90895D2
:0400CE000C9400008E
:00000001FF
